{
  "_format": "hh-sol-artifact-1",
  "contractName": "CoinFlipGame",
  "sourceName": "contracts/CoinFlipGame.sol",
  "abi": [
    {
      "inputs": [
        {
          "internalType": "uint256",
          "name": "_bet",
          "type": "uint256"
        }
      ],
      "stateMutability": "nonpayable",
      "type": "constructor"
    },
    {
      "anonymous": false,
      "inputs": [
        {
          "indexed": true,
          "internalType": "address",
          "name": "player",
          "type": "address"
        },
        {
          "indexed": false,
          "internalType": "uint8",
          "name": "bet",
          "type": "uint8"
        }
      ],
      "name": "BetPlaced",
      "type": "event"
    },
    {
      "anonymous": false,
      "inputs": [
        {
          "indexed": false,
          "internalType": "uint8",
          "name": "outcome",
          "type": "uint8"
        }
      ],
      "name": "FlipResult",
      "type": "event"
    },
    {
      "anonymous": false,
      "inputs": [
        {
          "indexed": false,
          "internalType": "uint256",
          "name": "bet",
          "type": "uint256"
        }
      ],
      "name": "GameStarted",
      "type": "event"
    },
    {
      "anonymous": false,
      "inputs": [
        {
          "indexed": true,
          "internalType": "address",
          "name": "operator",
          "type": "address"
        },
        {
          "indexed": false,
          "internalType": "uint256",
          "name": "amount",
          "type": "uint256"
        }
      ],
      "name": "OperatorWins",
      "type": "event"
    },
    {
      "anonymous": false,
      "inputs": [
        {
          "indexed": true,
          "internalType": "address",
          "name": "player",
          "type": "address"
        },
        {
          "indexed": false,
          "internalType": "uint256",
          "name": "amount",
          "type": "uint256"
        }
      ],
      "name": "PlayerWins",
      "type": "event"
    },
    {
      "inputs": [],
      "name": "author",
      "outputs": [
        {
          "internalType": "string",
          "name": "",
          "type": "string"
        }
      ],
      "stateMutability": "view",
      "type": "function"
    },
    {
      "inputs": [],
      "name": "bet",
      "outputs": [
        {
          "internalType": "uint256",
          "name": "",
          "type": "uint256"
        }
      ],
      "stateMutability": "view",
      "type": "function"
    },
    {
      "inputs": [],
      "name": "depositOperatorFunds",
      "outputs": [],
      "stateMutability": "payable",
      "type": "function"
    },
    {
      "inputs": [],
      "name": "flipAndSettle",
      "outputs": [],
      "stateMutability": "nonpayable",
      "type": "function"
    },
    {
      "inputs": [],
      "name": "getOperatorBalance",
      "outputs": [
        {
          "internalType": "uint256",
          "name": "",
          "type": "uint256"
        }
      ],
      "stateMutability": "view",
      "type": "function"
    },
    {
      "inputs": [],
      "name": "operator",
      "outputs": [
        {
          "internalType": "address",
          "name": "",
          "type": "address"
        }
      ],
      "stateMutability": "view",
      "type": "function"
    },
    {
      "inputs": [],
      "name": "operatorBalance",
      "outputs": [
        {
          "internalType": "uint256",
          "name": "",
          "type": "uint256"
        }
      ],
      "stateMutability": "view",
      "type": "function"
    },
    {
      "inputs": [
        {
          "internalType": "uint8",
          "name": "_bet",
          "type": "uint8"
        }
      ],
      "name": "placeBet",
      "outputs": [],
      "stateMutability": "payable",
      "type": "function"
    },
    {
      "inputs": [],
      "name": "player",
      "outputs": [
        {
          "internalType": "address",
          "name": "",
          "type": "address"
        }
      ],
      "stateMutability": "view",
      "type": "function"
    },
    {
      "inputs": [],
      "name": "playerBet",
      "outputs": [
        {
          "internalType": "uint8",
          "name": "",
          "type": "uint8"
        }
      ],
      "stateMutability": "view",
      "type": "function"
    },
    {
      "inputs": [],
      "name": "state",
      "outputs": [
        {
          "internalType": "enum CoinFlipGame.State",
          "name": "",
          "type": "uint8"
        }
      ],
      "stateMutability": "view",
      "type": "function"
    },
    {
      "inputs": [
        {
          "internalType": "uint256",
          "name": "amount",
          "type": "uint256"
        }
      ],
      "name": "withdrawOperatorFunds",
      "outputs": [],
      "stateMutability": "nonpayable",
      "type": "function"
    }
  ],
  "bytecode": "0x60806040526040518060400160405280600c81526020017f53636f7474204c657869756d0000000000000000000000000000000000000000815250600690816200004a9190620003f5565b503480156200005857600080fd5b5060405162001ad738038062001ad783398181016040528101906200007e919062000512565b60008111620000c4576040517f08c379a0000000000000000000000000000000000000000000000000000000008152600401620000bb90620005a5565b60405180910390fd5b336000806101000a81548173ffffffffffffffffffffffffffffffffffffffff021916908373ffffffffffffffffffffffffffffffffffffffff1602179055506000600160146101000a81548160ff021916908360028111156200012d576200012c620005c7565b5b0217905550806002819055507f50ad08f58a27f2851d7e3a1b3a6a46b290f2ce677e99642d30ff639721e777906002546040516200016c919062000607565b60405180910390a15062000624565b600081519050919050565b7f4e487b7100000000000000000000000000000000000000000000000000000000600052604160045260246000fd5b7f4e487b7100000000000000000000000000000000000000000000000000000000600052602260045260246000fd5b60006002820490506001821680620001fd57607f821691505b602082108103620002135762000212620001b5565b5b50919050565b60008190508160005260206000209050919050565b60006020601f8301049050919050565b600082821b905092915050565b6000600883026200027d7fffffffffffffffffffffffffffffffffffffffffffffffffffffffffffffffff826200023e565b6200028986836200023e565b95508019841693508086168417925050509392505050565b6000819050919050565b6000819050919050565b6000620002d6620002d0620002ca84620002a1565b620002ab565b620002a1565b9050919050565b6000819050919050565b620002f283620002b5565b6200030a6200030182620002dd565b8484546200024b565b825550505050565b600090565b6200032162000312565b6200032e818484620002e7565b505050565b5b8181101562000356576200034a60008262000317565b60018101905062000334565b5050565b601f821115620003a5576200036f8162000219565b6200037a846200022e565b810160208510156200038a578190505b620003a262000399856200022e565b83018262000333565b50505b505050565b600082821c905092915050565b6000620003ca60001984600802620003aa565b1980831691505092915050565b6000620003e58383620003b7565b9150826002028217905092915050565b62000400826200017b565b67ffffffffffffffff8111156200041c576200041b62000186565b5b620004288254620001e4565b620004358282856200035a565b600060209050601f8311600181146200046d576000841562000458578287015190505b620004648582620003d7565b865550620004d4565b601f1984166200047d8662000219565b60005b82811015620004a75784890151825560018201915060208501945060208101905062000480565b86831015620004c75784890151620004c3601f891682620003b7565b8355505b6001600288020188555050505b505050505050565b600080fd5b620004ec81620002a1565b8114620004f857600080fd5b50565b6000815190506200050c81620004e1565b92915050565b6000602082840312156200052b576200052a620004dc565b5b60006200053b84828501620004fb565b91505092915050565b600082825260208201905092915050565b7f426574206d7573742062652067726561746572207468616e2030000000000000600082015250565b60006200058d601a8362000544565b91506200059a8262000555565b602082019050919050565b60006020820190508181036000830152620005c0816200057e565b9050919050565b7f4e487b7100000000000000000000000000000000000000000000000000000000600052602160045260246000fd5b6200060181620002a1565b82525050565b60006020820190506200061e6000830184620005f6565b92915050565b6114a380620006346000396000f3fe6080604052600436106100a75760003560e01c8063a374b42011610064578063a374b4201461019d578063a6c3e6b9146101a7578063c19d93fb146101d2578063d5ecd2dc146101fd578063fa86eb6e14610214578063fcdd8aac1461023f576100a7565b806311610c25146100ac57806343046844146100d757806343be8bc5146100f357806348db5f891461011c578063570ca73514610147578063796c25b614610172575b600080fd5b3480156100b857600080fd5b506100c161026a565b6040516100ce9190610cc4565b60405180910390f35b6100f160048036038101906100ec9190610d1d565b610270565b005b3480156100ff57600080fd5b5061011a60048036038101906101159190610d76565b6104cf565b005b34801561012857600080fd5b506101316106ab565b60405161013e9190610de4565b60405180910390f35b34801561015357600080fd5b5061015c6106d1565b6040516101699190610de4565b60405180910390f35b34801561017e57600080fd5b506101876106f5565b6040516101949190610cc4565b60405180910390f35b6101a56106ff565b005b3480156101b357600080fd5b506101bc6107a8565b6040516101c99190610e8f565b60405180910390f35b3480156101de57600080fd5b506101e7610836565b6040516101f49190610f28565b60405180910390f35b34801561020957600080fd5b50610212610849565b005b34801561022057600080fd5b50610229610c07565b6040516102369190610f52565b60405180910390f35b34801561024b57600080fd5b50610254610c1a565b6040516102619190610cc4565b60405180910390f35b60025481565b600080600281111561028557610284610eb1565b5b600160149054906101000a900460ff1660028111156102a7576102a6610eb1565b5b146102e7576040517f08c379a00000000000000000000000000000000000000000000000000000000081526004016102de90610fb9565b60405180910390fd5b60008260ff1614806102fc575060018260ff16145b61033b576040517f08c379a000000000000000000000000000000000000000000000000000000000815260040161033290611025565b60405180910390fd5b600254341461037f576040517f08c379a000000000000000000000000000000000000000000000000000000000815260040161037690611091565b60405180910390fd5b60025460045410156103c6576040517f08c379a00000000000000000000000000000000000000000000000000000000081526004016103bd906110fd565b60405180910390fd5b81600360006101000a81548160ff021916908360ff16021790555033600160006101000a81548173ffffffffffffffffffffffffffffffffffffffff021916908373ffffffffffffffffffffffffffffffffffffffff16021790555060018060146101000a81548160ff0219169083600281111561044757610446610eb1565b5b0217905550600160009054906101000a900473ffffffffffffffffffffffffffffffffffffffff1673ffffffffffffffffffffffffffffffffffffffff167fa649479f89adca74c135944103b2997606519535720c4cd7e60e65ae051cf4dd600360009054906101000a900460ff166040516104c39190610f52565b60405180910390a25050565b60008054906101000a900473ffffffffffffffffffffffffffffffffffffffff1673ffffffffffffffffffffffffffffffffffffffff163373ffffffffffffffffffffffffffffffffffffffff161461055d576040517f08c379a00000000000000000000000000000000000000000000000000000000081526004016105549061118f565b60405180910390fd5b600560009054906101000a900460ff16156105ad576040517f08c379a00000000000000000000000000000000000000000000000000000000081526004016105a4906111fb565b60405180910390fd5b6001600560006101000a81548160ff02191690831515021790555060045481111561060d576040517f08c379a000000000000000000000000000000000000000000000000000000000815260040161060490611267565b60405180910390fd5b806004600082825461061f91906112b6565b9250508190555060008054906101000a900473ffffffffffffffffffffffffffffffffffffffff1673ffffffffffffffffffffffffffffffffffffffff166108fc829081150290604051600060405180830381858888f1935050505015801561068c573d6000803e3d6000fd5b506000600560006101000a81548160ff02191690831515021790555050565b600160009054906101000a900473ffffffffffffffffffffffffffffffffffffffff1681565b60008054906101000a900473ffffffffffffffffffffffffffffffffffffffff1681565b6000600454905090565b60008054906101000a900473ffffffffffffffffffffffffffffffffffffffff1673ffffffffffffffffffffffffffffffffffffffff163373ffffffffffffffffffffffffffffffffffffffff161461078d576040517f08c379a00000000000000000000000000000000000000000000000000000000081526004016107849061118f565b60405180910390fd5b346004600082825461079f91906112ea565b92505081905550565b600680546107b59061134d565b80601f01602080910402602001604051908101604052809291908181526020018280546107e19061134d565b801561082e5780601f106108035761010080835404028352916020019161082e565b820191906000526020600020905b81548152906001019060200180831161081157829003601f168201915b505050505081565b600160149054906101000a900460ff1681565b60008054906101000a900473ffffffffffffffffffffffffffffffffffffffff1673ffffffffffffffffffffffffffffffffffffffff163373ffffffffffffffffffffffffffffffffffffffff16146108d7576040517f08c379a00000000000000000000000000000000000000000000000000000000081526004016108ce9061118f565b60405180910390fd5b60018060028111156108ec576108eb610eb1565b5b600160149054906101000a900460ff16600281111561090e5761090d610eb1565b5b1461094e576040517f08c379a000000000000000000000000000000000000000000000000000000000815260040161094590610fb9565b60405180910390fd5b600560009054906101000a900460ff161561099e576040517f08c379a0000000000000000000000000000000000000000000000000000000008152600401610995906111fb565b60405180910390fd5b6001600560006101000a81548160ff0219169083151502179055506000600242446040516020016109d092919061139f565b6040516020818303038152906040528051906020012060001c6109f391906113fa565b90507f0f88c13e9a3ff98ae5a5206693eb960455e1e7f4505ce36e3b374cfb515bbecb81604051610a249190610f52565b60405180910390a1600360009054906101000a900460ff1660ff168160ff1603610b5457600060028054610a58919061142b565b905060025460046000828254610a6e91906112b6565b92505081905550600160009054906101000a900473ffffffffffffffffffffffffffffffffffffffff1673ffffffffffffffffffffffffffffffffffffffff166108fc829081150290604051600060405180830381858888f19350505050158015610add573d6000803e3d6000fd5b50600160009054906101000a900473ffffffffffffffffffffffffffffffffffffffff1673ffffffffffffffffffffffffffffffffffffffff167fda27f4eb784d14df1ca44dff3a052d889b489e056682de7efd01ad184d08cc8282604051610b469190610cc4565b60405180910390a250610be0565b60025460046000828254610b6891906112ea565b9250508190555060008054906101000a900473ffffffffffffffffffffffffffffffffffffffff1673ffffffffffffffffffffffffffffffffffffffff167f3b1dc4bd75d5d0d07ffd7af4fb495f5a528b3509861719a2cd7ec0373ce4f96c600254604051610bd79190610cc4565b60405180910390a25b610be8610c20565b506000600560006101000a81548160ff02191690831515021790555050565b600360009054906101000a900460ff1681565b60045481565b6000600160146101000a81548160ff02191690836002811115610c4657610c45610eb1565b5b02179055506000600160006101000a81548173ffffffffffffffffffffffffffffffffffffffff021916908373ffffffffffffffffffffffffffffffffffffffff1602179055506000600360006101000a81548160ff021916908360ff160217905550565b6000819050919050565b610cbe81610cab565b82525050565b6000602082019050610cd96000830184610cb5565b92915050565b600080fd5b600060ff82169050919050565b610cfa81610ce4565b8114610d0557600080fd5b50565b600081359050610d1781610cf1565b92915050565b600060208284031215610d3357610d32610cdf565b5b6000610d4184828501610d08565b91505092915050565b610d5381610cab565b8114610d5e57600080fd5b50565b600081359050610d7081610d4a565b92915050565b600060208284031215610d8c57610d8b610cdf565b5b6000610d9a84828501610d61565b91505092915050565b600073ffffffffffffffffffffffffffffffffffffffff82169050919050565b6000610dce82610da3565b9050919050565b610dde81610dc3565b82525050565b6000602082019050610df96000830184610dd5565b92915050565b600081519050919050565b600082825260208201905092915050565b60005b83811015610e39578082015181840152602081019050610e1e565b60008484015250505050565b6000601f19601f8301169050919050565b6000610e6182610dff565b610e6b8185610e0a565b9350610e7b818560208601610e1b565b610e8481610e45565b840191505092915050565b60006020820190508181036000830152610ea98184610e56565b905092915050565b7f4e487b7100000000000000000000000000000000000000000000000000000000600052602160045260246000fd5b60038110610ef157610ef0610eb1565b5b50565b6000819050610f0282610ee0565b919050565b6000610f1282610ef4565b9050919050565b610f2281610f07565b82525050565b6000602082019050610f3d6000830184610f19565b92915050565b610f4c81610ce4565b82525050565b6000602082019050610f676000830184610f43565b92915050565b7f496e76616c696420737461746500000000000000000000000000000000000000600082015250565b6000610fa3600d83610e0a565b9150610fae82610f6d565b602082019050919050565b60006020820190508181036000830152610fd281610f96565b9050919050565b7f496e76616c696420626574000000000000000000000000000000000000000000600082015250565b600061100f600b83610e0a565b915061101a82610fd9565b602082019050919050565b6000602082019050818103600083015261103e81611002565b9050919050565b7f496e636f72726563742062657420616d6f756e74000000000000000000000000600082015250565b600061107b601483610e0a565b915061108682611045565b602082019050919050565b600060208201905081810360008301526110aa8161106e565b9050919050565b7f496e73756666696369656e74206f70657261746f722066756e64730000000000600082015250565b60006110e7601b83610e0a565b91506110f2826110b1565b602082019050919050565b60006020820190508181036000830152611116816110da565b9050919050565b7f4f6e6c79206f70657261746f722063616e2063616c6c20746869732066756e6360008201527f74696f6e00000000000000000000000000000000000000000000000000000000602082015250565b6000611179602483610e0a565b91506111848261111d565b604082019050919050565b600060208201905081810360008301526111a88161116c565b9050919050565b7f4e6f2072652d656e7472616e6379000000000000000000000000000000000000600082015250565b60006111e5600e83610e0a565b91506111f0826111af565b602082019050919050565b60006020820190508181036000830152611214816111d8565b9050919050565b7f496e73756666696369656e742066756e64730000000000000000000000000000600082015250565b6000611251601283610e0a565b915061125c8261121b565b602082019050919050565b6000602082019050818103600083015261128081611244565b9050919050565b7f4e487b7100000000000000000000000000000000000000000000000000000000600052601160045260246000fd5b60006112c182610cab565b91506112cc83610cab565b92508282039050818111156112e4576112e3611287565b5b92915050565b60006112f582610cab565b915061130083610cab565b925082820190508082111561131857611317611287565b5b92915050565b7f4e487b7100000000000000000000000000000000000000000000000000000000600052602260045260246000fd5b6000600282049050600182168061136557607f821691505b6020821081036113785761137761131e565b5b50919050565b6000819050919050565b61139961139482610cab565b61137e565b82525050565b60006113ab8285611388565b6020820191506113bb8284611388565b6020820191508190509392505050565b7f4e487b7100000000000000000000000000000000000000000000000000000000600052601260045260246000fd5b600061140582610cab565b915061141083610cab565b9250826114205761141f6113cb565b5b828206905092915050565b600061143682610cab565b915061144183610cab565b925082820261144f81610cab565b9150828204841483151761146657611465611287565b5b509291505056fea264697066735822122048a4ffa9ef175352013c3eaf125be1ac878c4f5293c6895ea874d71ca912c07f64736f6c63430008150033",
  "linkReferences": {},
  "deployedLinkReferences": {}
}